{
  "transactions": [
    {
      "hash": "0xa5cbe0b1af1d749ec91eed09a4713cfee3be78293a91949b2e2f6ad4a2b57ee7",
      "transactionType": "CREATE",
      "contractName": "MarketPlace",
      "contractAddress": "0xba7f9a0f11ad335ad876228044575ea1b3a2721b",
      "function": null,
      "arguments": null,
      "transaction": {
        "from": "0x11c64289f2f7b6852d196a65b656afc9d25d8327",
        "to": null,
        "gas": "0xd4c02",
        "value": "0x0",
        "input": "0x6080604052600060025534801561001557600080fd5b506040518060600160405280602c8152602001610b41602c913960009061003c9082610115565b5060408051808201909152600d81526c273bb0bab3b7902bb0b63a32b960991b602082015260019061006e9082610115565b506101d4565b634e487b7160e01b600052604160045260246000fd5b600181811c9082168061009e57607f821691505b6020821081036100be57634e487b7160e01b600052602260045260246000fd5b50919050565b601f821115610110576000816000526020600020601f850160051c810160208610156100ed5750805b601f850160051c820191505b8181101561010c578281556001016100f9565b5050505b505050565b81516001600160401b0381111561012e5761012e610074565b6101428161013c845461008a565b846100c4565b602080601f831160018114610177576000841561015f5750858301515b600019600386901b1c1916600185901b17855561010c565b600085815260208120601f198616915b828110156101a657888601518255948401946001909101908401610187565b50858210156101c45787850151600019600388901b60f8161c191681555b5050505050600190811b01905550565b61095e806101e36000396000f3fe6080604052600436106100555760003560e01c806306fdde031461005a57806338e76a03146100855780637acc0b201461009a578063d5f39488146100cb578063e0f6ef87146100e0578063e9300c6c14610104575b600080fd5b34801561006657600080fd5b5061006f610124565b60405161007c9190610677565b60405180910390f35b610098610093366004610691565b6101b2565b005b3480156100a657600080fd5b506100ba6100b5366004610691565b61042f565b60405161007c9594939291906106aa565b3480156100d757600080fd5b5061006f6104f5565b3480156100ec57600080fd5b506100f660025481565b60405190815260200161007c565b34801561011057600080fd5b5061009861011f366004610701565b610502565b60008054610131906107b6565b80601f016020809104026020016040519081016040528092919081815260200182805461015d906107b6565b80156101aa5780601f1061017f576101008083540402835291602001916101aa565b820191906000526020600020905b81548152906001019060200180831161018d57829003601f168201915b505050505081565b6000600360008381526020019081526020016000206040518060a0016040529081600082015481526020016001820180546101ec906107b6565b80601f0160208091040260200160405190810160405280929190818152602001828054610218906107b6565b80156102655780601f1061023a57610100808354040283529160200191610265565b820191906000526020600020905b81548152906001019060200180831161024857829003601f168201915b5050509183525050600282015460208201526003909101546001600160a01b0381166040830152600160a01b900460ff161515606091820152810151815191925090600111806102b757506002548251105b156102d55760405163a119f85b60e01b815260040160405180910390fd5b81604001513410156102fa57604051630ee5ab6560e31b815260040160405180910390fd5b608082015115156001036103215760405163231a5b8760e21b815260040160405180910390fd5b336001600160a01b0382160361033657600080fd5b33606083015260016080830181905260008481526003602090815260409091208451815590840151849282019061036d9082610841565b5060408281015160028301556060830151600390920180546080909401511515600160a01b026001600160a81b03199094166001600160a01b0393841617939093179092559051908216903480156108fc02916000818181858888f193505050501580156103df573d6000803e3d6000fd5b507f79558d0d7d4d900e2f15c4cc0a665f1acdbe415e44de900ecdd1e5bf12b56f4e600254836020015184604001513360016040516104229594939291906106aa565b60405180910390a1505050565b60036020526000908152604090208054600182018054919291610451906107b6565b80601f016020809104026020016040519081016040528092919081815260200182805461047d906107b6565b80156104ca5780601f1061049f576101008083540402835291602001916104ca565b820191906000526020600020905b8154815290600101906020018083116104ad57829003601f168201915b5050505060028301546003909301549192916001600160a01b0381169150600160a01b900460ff1685565b60018054610131906107b6565b60008251116105245760405163579da6a760e11b815260040160405180910390fd5b60008111610545576040516392b530eb60e01b815260040160405180910390fd5b6002805490600061055583610901565b90915550506040805160a0810182526002548082526020808301868152838501869052336060850181905260006080860181905293845260039092529390912082518155925190929060018201906105ad9082610841565b506040828101516002808401919091556060840151600390930180546080909501511515600160a01b026001600160a81b03199095166001600160a01b039094169390931793909317909155905490517fbc59c0c8165864dcceb377dd07d8f431d4303f8e501cb0a0374a10cc68d7183691610422918690869033906000906106aa565b6000815180845260005b818110156106575760208185018101518683018201520161063b565b506000602082860101526020601f19601f83011685010191505092915050565b60208152600061068a6020830184610631565b9392505050565b6000602082840312156106a357600080fd5b5035919050565b85815260a0602082015260006106c360a0830187610631565b6040830195909552506001600160a01b03929092166060830152151560809091015292915050565b634e487b7160e01b600052604160045260246000fd5b6000806040838503121561071457600080fd5b823567ffffffffffffffff8082111561072c57600080fd5b818501915085601f83011261074057600080fd5b813581811115610752576107526106eb565b604051601f8201601f19908116603f0116810190838211818310171561077a5761077a6106eb565b8160405282815288602084870101111561079357600080fd5b826020860160208301376000602093820184015298969091013596505050505050565b600181811c908216806107ca57607f821691505b6020821081036107ea57634e487b7160e01b600052602260045260246000fd5b50919050565b601f82111561083c576000816000526020600020601f850160051c810160208610156108195750805b601f850160051c820191505b8181101561083857828155600101610825565b5050505b505050565b815167ffffffffffffffff81111561085b5761085b6106eb565b61086f8161086984546107b6565b846107f0565b602080601f8311600181146108a4576000841561088c5750858301515b600019600386901b1c1916600185901b178555610838565b600085815260208120601f198616915b828110156108d3578886015182559484019460019091019084016108b4565b50858210156108f15787850151600019600388901b60f8161c191681555b5050505050600190811b01905550565b60006001820161092157634e487b7160e01b600052601160045260246000fd5b506001019056fea26469706673582212206ea53ab2da2efa731d1c6b6e5a410df251b3dfbc24aba9433cb6cc445889102a64736f6c634300081900334d61726b74506c61636520536d61727420436f6e7472616374206f6e205365706f6c696120546573746e6574",
        "nonce": "0xe6",
        "chainId": "0xaa36a7",
        "accessList": null,
        "type": null
      },
      "additionalContracts": [],
      "isFixedGasLimit": false
    },
    {
      "hash": "0x172b34adacaab84748cdbad9e574e687e969867bb93a8c4f54db8d8ddb40ba13",
      "transactionType": "CALL",
      "contractName": "MarketPlace",
      "contractAddress": "0xba7f9a0f11ad335ad876228044575ea1b3a2721b",
      "function": "createProduct(string,uint256)",
      "arguments": [
        "\"Laptop\"",
        "1000000000000000000000"
      ],
      "transaction": {
        "from": "0x11c64289f2f7b6852d196a65b656afc9d25d8327",
        "to": "0xba7f9a0f11ad335ad876228044575ea1b3a2721b",
        "gas": "0x30ef2",
        "value": "0x0",
        "input": "0xe9300c6c000000000000000000000000000000000000000000000000000000000000004000000000000000000000000000000000000000000000003635c9adc5dea0000000000000000000000000000000000000000000000000000000000000000000064c6170746f700000000000000000000000000000000000000000000000000000",
        "nonce": "0xe7",
        "chainId": "0xaa36a7",
        "accessList": null,
        "type": null
      },
      "additionalContracts": [],
      "isFixedGasLimit": false
    },
    {
      "hash": "0xd9627db2add0fd4b172a54b11a4bf306c72bb034b408b3614021e4b8d0478646",
      "transactionType": "CALL",
      "contractName": "MarketPlace",
      "contractAddress": "0xba7f9a0f11ad335ad876228044575ea1b3a2721b",
      "function": "createProduct(string,uint256)",
      "arguments": [
        "\"Phone\"",
        "500000000000000000000"
      ],
      "transaction": {
        "from": "0x11c64289f2f7b6852d196a65b656afc9d25d8327",
        "to": "0xba7f9a0f11ad335ad876228044575ea1b3a2721b",
        "gas": "0x2ad2f",
        "value": "0x0",
        "input": "0xe9300c6c000000000000000000000000000000000000000000000000000000000000004000000000000000000000000000000000000000000000001b1ae4d6e2ef500000000000000000000000000000000000000000000000000000000000000000000550686f6e65000000000000000000000000000000000000000000000000000000",
        "nonce": "0xe8",
        "chainId": "0xaa36a7",
        "accessList": null,
        "type": null
      },
      "additionalContracts": [],
      "isFixedGasLimit": false
    }
  ],
  "receipts": [
    {
      "status": "0x1",
      "cumulativeGasUsed": "0x40fe10",
      "logs": [],
      "logsBloom": "0x00000000000000000000000000000000000000000000000000000000000000000000000000000000000000000000000000000000000000000000000000000000000000000000000000000000000000000000000000000000000000000000000000000000000000000000000000000000000000000000000000000000000000000000000000000000000000000000000000000000000000000000000000000000000000000000000000000000000000000000000000000000000000000000000000000000000000000000000000000000000000000000000000000000000000000000000000000000000000000000000000000000000000000000000000000000",
      "type": "0x2",
      "transactionHash": "0xa5cbe0b1af1d749ec91eed09a4713cfee3be78293a91949b2e2f6ad4a2b57ee7",
      "transactionIndex": "0x29",
      "blockHash": "0x0c6ee142fb4f24c9613eede3253a6c5d42f95c55cac56c755722e83473533031",
      "blockNumber": "0x592121",
      "gasUsed": "0xa3b30",
      "effectiveGasPrice": "0xfc7800645",
      "from": "0x11c64289f2f7b6852d196a65b656afc9d25d8327",
      "to": null,
      "contractAddress": "0xba7f9a0f11ad335ad876228044575ea1b3a2721b"
    },
    {
      "status": "0x1",
      "cumulativeGasUsed": "0x536594",
      "logs": [
        {
          "address": "0xba7f9a0f11ad335ad876228044575ea1b3a2721b",
          "topics": [
            "0xbc59c0c8165864dcceb377dd07d8f431d4303f8e501cb0a0374a10cc68d71836"
          ],
          "data": "0x000000000000000000000000000000000000000000000000000000000000000100000000000000000000000000000000000000000000000000000000000000a000000000000000000000000000000000000000000000003635c9adc5dea0000000000000000000000000000011c64289f2f7b6852d196a65b656afc9d25d8327000000000000000000000000000000000000000000000000000000000000000000000000000000000000000000000000000000000000000000000000000000064c6170746f700000000000000000000000000000000000000000000000000000",
          "blockHash": "0x0c6ee142fb4f24c9613eede3253a6c5d42f95c55cac56c755722e83473533031",
          "blockNumber": "0x592121",
          "transactionHash": "0x172b34adacaab84748cdbad9e574e687e969867bb93a8c4f54db8d8ddb40ba13",
          "transactionIndex": "0x2f",
          "logIndex": "0x6a",
          "removed": false
        }
      ],
      "logsBloom": "0x00000000000000000000000000000000000000000000000000000000000000000000000000000000000000000000000000000000400000000000000000000000000000000000000000000000000000000000000000000000000000000000000000000000000000000000000000000000000000000000000000000000000000000000000000200000000000000000000000020000000000000000000020000000000000000000000000000000000000000000000000000000000000000000000000000000000000000000000000000000000000000000000080000000000000000000000000000000000000000000000000400000000000000000000000000000",
      "type": "0x2",
      "transactionHash": "0x172b34adacaab84748cdbad9e574e687e969867bb93a8c4f54db8d8ddb40ba13",
      "transactionIndex": "0x2f",
      "blockHash": "0x0c6ee142fb4f24c9613eede3253a6c5d42f95c55cac56c755722e83473533031",
      "blockNumber": "0x592121",
      "gasUsed": "0x21759",
      "effectiveGasPrice": "0xfc7800645",
      "from": "0x11c64289f2f7b6852d196a65b656afc9d25d8327",
      "to": "0xba7f9a0f11ad335ad876228044575ea1b3a2721b",
      "contractAddress": null
    },
    {
      "status": "0x1",
      "cumulativeGasUsed": "0x553a15",
      "logs": [
        {
          "address": "0xba7f9a0f11ad335ad876228044575ea1b3a2721b",
          "topics": [
            "0xbc59c0c8165864dcceb377dd07d8f431d4303f8e501cb0a0374a10cc68d71836"
          ],
          "data": "0x000000000000000000000000000000000000000000000000000000000000000200000000000000000000000000000000000000000000000000000000000000a000000000000000000000000000000000000000000000001b1ae4d6e2ef50000000000000000000000000000011c64289f2f7b6852d196a65b656afc9d25d83270000000000000000000000000000000000000000000000000000000000000000000000000000000000000000000000000000000000000000000000000000000550686f6e65000000000000000000000000000000000000000000000000000000",
          "blockHash": "0x0c6ee142fb4f24c9613eede3253a6c5d42f95c55cac56c755722e83473533031",
          "blockNumber": "0x592121",
          "transactionHash": "0xd9627db2add0fd4b172a54b11a4bf306c72bb034b408b3614021e4b8d0478646",
          "transactionIndex": "0x30",
          "logIndex": "0x6b",
          "removed": false
        }
      ],
      "logsBloom": "0x00000000000000000000000000000000000000000000000000000000000000000000000000000000000000000000000000000000400000000000000000000000000000000000000000000000000000000000000000000000000000000000000000000000000000000000000000000000000000000000000000000000000000000000000000200000000000000000000000020000000000000000000020000000000000000000000000000000000000000000000000000000000000000000000000000000000000000000000000000000000000000000000080000000000000000000000000000000000000000000000000400000000000000000000000000000",
      "type": "0x2",
      "transactionHash": "0xd9627db2add0fd4b172a54b11a4bf306c72bb034b408b3614021e4b8d0478646",
      "transactionIndex": "0x30",
      "blockHash": "0x0c6ee142fb4f24c9613eede3253a6c5d42f95c55cac56c755722e83473533031",
      "blockNumber": "0x592121",
      "gasUsed": "0x1d481",
      "effectiveGasPrice": "0xfc7800645",
      "from": "0x11c64289f2f7b6852d196a65b656afc9d25d8327",
      "to": "0xba7f9a0f11ad335ad876228044575ea1b3a2721b",
      "contractAddress": null
    }
  ],
  "libraries": [],
  "pending": [],
  "returns": {},
  "timestamp": 1714903985,
  "chain": 11155111,
  "commit": null
}