{
  "transactions": [
    {
      "hash": "0x4057f8639e2ed74904286ee7bed20575d07bb61f99014cd30720bb6c8d2b0d87",
      "transactionType": "CREATE",
      "contractName": "MarketPlace",
      "contractAddress": "0x9ca371dfd6f9e77e2ad6520f7439eed34b13c883",
      "function": null,
      "arguments": null,
      "transaction": {
        "from": "0x11c64289f2f7b6852d196a65b656afc9d25d8327",
        "to": null,
        "gas": "0xd45d5",
        "value": "0x0",
        "input": "0x6080604052600060025534801561001557600080fd5b50604051806060016040528060318152602001610b3b6031913960009061003c9082610115565b5060408051808201909152600d81526c273bb0bab3b7902bb0b63a32b960991b602082015260019061006e9082610115565b506101d4565b634e487b7160e01b600052604160045260246000fd5b600181811c9082168061009e57607f821691505b6020821081036100be57634e487b7160e01b600052602260045260246000fd5b50919050565b601f821115610110576000816000526020600020601f850160051c810160208610156100ed5750805b601f850160051c820191505b8181101561010c578281556001016100f9565b5050505b505050565b81516001600160401b0381111561012e5761012e610074565b6101428161013c845461008a565b846100c4565b602080601f831160018114610177576000841561015f5750858301515b600019600386901b1c1916600185901b17855561010c565b600085815260208120601f198616915b828110156101a657888601518255948401946001909101908401610187565b50858210156101c45787850151600019600388901b60f8161c191681555b5050505050600190811b01905550565b610958806101e36000396000f3fe6080604052600436106100555760003560e01c806306fdde031461005a57806338e76a03146100855780637acc0b201461009a578063d5f39488146100cb578063e0f6ef87146100e0578063e9300c6c14610104575b600080fd5b34801561006657600080fd5b5061006f610124565b60405161007c9190610671565b60405180910390f35b61009861009336600461068b565b6101b2565b005b3480156100a657600080fd5b506100ba6100b536600461068b565b610429565b60405161007c9594939291906106a4565b3480156100d757600080fd5b5061006f6104ef565b3480156100ec57600080fd5b506100f660025481565b60405190815260200161007c565b34801561011057600080fd5b5061009861011f3660046106fb565b6104fc565b60008054610131906107b0565b80601f016020809104026020016040519081016040528092919081815260200182805461015d906107b0565b80156101aa5780601f1061017f576101008083540402835291602001916101aa565b820191906000526020600020905b81548152906001019060200180831161018d57829003601f168201915b505050505081565b6000600360008381526020019081526020016000206040518060a0016040529081600082015481526020016001820180546101ec906107b0565b80601f0160208091040260200160405190810160405280929190818152602001828054610218906107b0565b80156102655780601f1061023a57610100808354040283529160200191610265565b820191906000526020600020905b81548152906001019060200180831161024857829003601f168201915b5050509183525050600282015460208201526003909101546001600160a01b0381166040830152600160a01b900460ff1615156060918201528101518151919250901515806102b75750600254825111155b156102d55760405163a119f85b60e01b815260040160405180910390fd5b816040015134106102f957604051630ee5ab6560e31b815260040160405180910390fd5b816080015161031b5760405163231a5b8760e21b815260040160405180910390fd5b336001600160a01b0382160361033057600080fd5b336060830152600160808301819052600084815260036020908152604090912084518155908401518492820190610367908261083b565b5060408281015160028301556060830151600390920180546080909401511515600160a01b026001600160a81b03199094166001600160a01b0393841617939093179092559051908216903480156108fc02916000818181858888f193505050501580156103d9573d6000803e3d6000fd5b507f79558d0d7d4d900e2f15c4cc0a665f1acdbe415e44de900ecdd1e5bf12b56f4e6002548360200151846040015133600160405161041c9594939291906106a4565b60405180910390a1505050565b6003602052600090815260409020805460018201805491929161044b906107b0565b80601f0160208091040260200160405190810160405280929190818152602001828054610477906107b0565b80156104c45780601f10610499576101008083540402835291602001916104c4565b820191906000526020600020905b8154815290600101906020018083116104a757829003601f168201915b5050505060028301546003909301549192916001600160a01b0381169150600160a01b900460ff1685565b60018054610131906107b0565b600082511161051e5760405163579da6a760e11b815260040160405180910390fd5b6000811161053f576040516392b530eb60e01b815260040160405180910390fd5b6002805490600061054f836108fb565b90915550506040805160a0810182526002548082526020808301868152838501869052336060850181905260006080860181905293845260039092529390912082518155925190929060018201906105a7908261083b565b506040828101516002808401919091556060840151600390930180546080909501511515600160a01b026001600160a81b03199095166001600160a01b039094169390931793909317909155905490517fbc59c0c8165864dcceb377dd07d8f431d4303f8e501cb0a0374a10cc68d718369161041c918690869033906000906106a4565b6000815180845260005b8181101561065157602081850181015186830182015201610635565b506000602082860101526020601f19601f83011685010191505092915050565b602081526000610684602083018461062b565b9392505050565b60006020828403121561069d57600080fd5b5035919050565b85815260a0602082015260006106bd60a083018761062b565b6040830195909552506001600160a01b03929092166060830152151560809091015292915050565b634e487b7160e01b600052604160045260246000fd5b6000806040838503121561070e57600080fd5b823567ffffffffffffffff8082111561072657600080fd5b818501915085601f83011261073a57600080fd5b81358181111561074c5761074c6106e5565b604051601f8201601f19908116603f01168101908382118183101715610774576107746106e5565b8160405282815288602084870101111561078d57600080fd5b826020860160208301376000602093820184015298969091013596505050505050565b600181811c908216806107c457607f821691505b6020821081036107e457634e487b7160e01b600052602260045260246000fd5b50919050565b601f821115610836576000816000526020600020601f850160051c810160208610156108135750805b601f850160051c820191505b818110156108325782815560010161081f565b5050505b505050565b815167ffffffffffffffff811115610855576108556106e5565b6108698161086384546107b0565b846107ea565b602080601f83116001811461089e57600084156108865750858301515b600019600386901b1c1916600185901b178555610832565b600085815260208120601f198616915b828110156108cd578886015182559484019460019091019084016108ae565b50858210156108eb5787850151600019600388901b60f8161c191681555b5050505050600190811b01905550565b60006001820161091b57634e487b7160e01b600052601160045260246000fd5b506001019056fea2646970667358221220ba7550d86f0163628789c71161a2a595b6df2aaa1ae4ee38256adb40bc87d94364736f6c634300081900334d61726b74506c61636520536d61727420436f6e7472616374206f6e2042617365205365706f6c696120546573746e6574",
        "nonce": "0xb",
        "chainId": "0x14a34",
        "accessList": null,
        "type": null
      },
      "additionalContracts": [],
      "isFixedGasLimit": false
    },
    {
      "hash": "0x4415c75f4a12c036050965cc58a1bce22b9c9ac2addd6a59aaf079d2332edc28",
      "transactionType": "CALL",
      "contractName": "MarketPlace",
      "contractAddress": "0x9ca371dfd6f9e77e2ad6520f7439eed34b13c883",
      "function": "createProduct(string,uint256)",
      "arguments": [
        "\"Laptop\"",
        "1000000000000000000000"
      ],
      "transaction": {
        "from": "0x11c64289f2f7b6852d196a65b656afc9d25d8327",
        "to": "0x9ca371dfd6f9e77e2ad6520f7439eed34b13c883",
        "gas": "0x30ef2",
        "value": "0x0",
        "input": "0xe9300c6c000000000000000000000000000000000000000000000000000000000000004000000000000000000000000000000000000000000000003635c9adc5dea0000000000000000000000000000000000000000000000000000000000000000000064c6170746f700000000000000000000000000000000000000000000000000000",
        "nonce": "0xc",
        "chainId": "0x14a34",
        "accessList": null,
        "type": null
      },
      "additionalContracts": [],
      "isFixedGasLimit": false
    },
    {
      "hash": "0xa30972bc77f0de39041730919ea79c5484dc8fd63ff39df187ea8c256bc6f163",
      "transactionType": "CALL",
      "contractName": "MarketPlace",
      "contractAddress": "0x9ca371dfd6f9e77e2ad6520f7439eed34b13c883",
      "function": "createProduct(string,uint256)",
      "arguments": [
        "\"Phone\"",
        "500000000000000000000"
      ],
      "transaction": {
        "from": "0x11c64289f2f7b6852d196a65b656afc9d25d8327",
        "to": "0x9ca371dfd6f9e77e2ad6520f7439eed34b13c883",
        "gas": "0x2ad2f",
        "value": "0x0",
        "input": "0xe9300c6c000000000000000000000000000000000000000000000000000000000000004000000000000000000000000000000000000000000000001b1ae4d6e2ef500000000000000000000000000000000000000000000000000000000000000000000550686f6e65000000000000000000000000000000000000000000000000000000",
        "nonce": "0xd",
        "chainId": "0x14a34",
        "accessList": null,
        "type": null
      },
      "additionalContracts": [],
      "isFixedGasLimit": false
    }
  ],
  "receipts": [
    {
      "status": "0x1",
      "cumulativeGasUsed": "0x17a16b",
      "logs": [],
      "logsBloom": "0x00000000000000000000000000000000000000000000000000000000000000000000000000000000000000000000000000000000000000000000000000000000000000000000000000000000000000000000000000000000000000000000000000000000000000000000000000000000000000000000000000000000000000000000000000000000000000000000000000000000000000000000000000000000000000000000000000000000000000000000000000000000000000000000000000000000000000000000000000000000000000000000000000000000000000000000000000000000000000000000000000000000000000000000000000000000",
      "type": "0x2",
      "transactionHash": "0x4057f8639e2ed74904286ee7bed20575d07bb61f99014cd30720bb6c8d2b0d87",
      "transactionIndex": "0x3",
      "blockHash": "0x0a48922a165881d15c482cc711ade7ff567e72d0f26c847176a703398b7b5911",
      "blockNumber": "0x89dd3d",
      "gasUsed": "0xa3670",
      "effectiveGasPrice": "0x187bb",
      "from": "0x11c64289f2f7b6852d196a65b656afc9d25d8327",
      "to": null,
      "contractAddress": "0x9ca371dfd6f9e77e2ad6520f7439eed34b13c883",
      "l1Fee": "0x21b489c23fc9",
      "l1GasPrice": "0xc",
      "l1GasUsed": "0xb784"
    },
    {
      "status": "0x1",
      "cumulativeGasUsed": "0xb3252",
      "logs": [
        {
          "address": "0x9ca371dfd6f9e77e2ad6520f7439eed34b13c883",
          "topics": [
            "0xbc59c0c8165864dcceb377dd07d8f431d4303f8e501cb0a0374a10cc68d71836"
          ],
          "data": "0x000000000000000000000000000000000000000000000000000000000000000100000000000000000000000000000000000000000000000000000000000000a000000000000000000000000000000000000000000000003635c9adc5dea0000000000000000000000000000011c64289f2f7b6852d196a65b656afc9d25d8327000000000000000000000000000000000000000000000000000000000000000000000000000000000000000000000000000000000000000000000000000000064c6170746f700000000000000000000000000000000000000000000000000000",
          "blockHash": "0x2343fd6fb0072142848a922dddf348ba516b0db5e1bcdf16470badd4c8f80f9d",
          "blockNumber": "0x89dd3e",
          "transactionHash": "0x4415c75f4a12c036050965cc58a1bce22b9c9ac2addd6a59aaf079d2332edc28",
          "transactionIndex": "0x11",
          "logIndex": "0x2",
          "removed": false
        }
      ],
      "logsBloom": "0x00000000000000000000000000000000000000000000000000000000000000000000000000000000000000000000000000000100400000000000000000000000000000000000000000000000000000000000000000000000000000000000000000000000000000000000000000000000000000000000000000000000000000000000000000000000000000100400000000000000000000000000000000000000000000000000000000000000000000000000000000000000000000000000000000000000000000000000000000000000000000000000000080000000000000000000000000000000000000000000000000400000000000000000000000000000",
      "type": "0x2",
      "transactionHash": "0x4415c75f4a12c036050965cc58a1bce22b9c9ac2addd6a59aaf079d2332edc28",
      "transactionIndex": "0x11",
      "blockHash": "0x2343fd6fb0072142848a922dddf348ba516b0db5e1bcdf16470badd4c8f80f9d",
      "blockNumber": "0x89dd3e",
      "gasUsed": "0x21759",
      "effectiveGasPrice": "0x187bb",
      "from": "0x11c64289f2f7b6852d196a65b656afc9d25d8327",
      "to": "0x9ca371dfd6f9e77e2ad6520f7439eed34b13c883",
      "contractAddress": null,
      "l1Fee": "0x1d1c5a7878d",
      "l1GasPrice": "0xc",
      "l1GasUsed": "0x9e8"
    },
    {
      "status": "0x1",
      "cumulativeGasUsed": "0xd06d3",
      "logs": [
        {
          "address": "0x9ca371dfd6f9e77e2ad6520f7439eed34b13c883",
          "topics": [
            "0xbc59c0c8165864dcceb377dd07d8f431d4303f8e501cb0a0374a10cc68d71836"
          ],
          "data": "0x000000000000000000000000000000000000000000000000000000000000000200000000000000000000000000000000000000000000000000000000000000a000000000000000000000000000000000000000000000001b1ae4d6e2ef50000000000000000000000000000011c64289f2f7b6852d196a65b656afc9d25d83270000000000000000000000000000000000000000000000000000000000000000000000000000000000000000000000000000000000000000000000000000000550686f6e65000000000000000000000000000000000000000000000000000000",
          "blockHash": "0x2343fd6fb0072142848a922dddf348ba516b0db5e1bcdf16470badd4c8f80f9d",
          "blockNumber": "0x89dd3e",
          "transactionHash": "0xa30972bc77f0de39041730919ea79c5484dc8fd63ff39df187ea8c256bc6f163",
          "transactionIndex": "0x12",
          "logIndex": "0x3",
          "removed": false
        }
      ],
      "logsBloom": "0x00000000000000000000000000000000000000000000000000000000000000000000000000000000000000000000000000000100400000000000000000000000000000000000000000000000000000000000000000000000000000000000000000000000000000000000000000000000000000000000000000000000000000000000000000000000000000100400000000000000000000000000000000000000000000000000000000000000000000000000000000000000000000000000000000000000000000000000000000000000000000000000000080000000000000000000000000000000000000000000000000400000000000000000000000000000",
      "type": "0x2",
      "transactionHash": "0xa30972bc77f0de39041730919ea79c5484dc8fd63ff39df187ea8c256bc6f163",
      "transactionIndex": "0x12",
      "blockHash": "0x2343fd6fb0072142848a922dddf348ba516b0db5e1bcdf16470badd4c8f80f9d",
      "blockNumber": "0x89dd3e",
      "gasUsed": "0x1d481",
      "effectiveGasPrice": "0x187bb",
      "from": "0x11c64289f2f7b6852d196a65b656afc9d25d8327",
      "to": "0x9ca371dfd6f9e77e2ad6520f7439eed34b13c883",
      "contractAddress": null,
      "l1Fee": "0x1cf917039c9",
      "l1GasPrice": "0xc",
      "l1GasUsed": "0x9dc"
    }
  ],
  "libraries": [],
  "pending": [],
  "returns": {},
  "timestamp": 1713838435,
  "chain": 84532,
  "commit": null
}